:100000000C9456000C94E5020C9473000C9473004D
:100010000C9473000C9473000C9473000C94730094
:100020000C9473000C9473000C9473000C94730084
:100030000C9473000C9473000C9473000C94730074
:100040000C9473000C9473000C9473000C94730064
:100050000C9473000C9473000C9473000C94730054
:100060000C9473000C9473000C9473000C94730044
:100070000C9473000C9473000C9473000C94A00007
:100080000C9461010C9482010C948C010C9473000B
:100090000C9473000C9473000C9473000C94730014
:1000A0000C9473000C9473000C94730011241FBE05
:1000B000CFEFDAE0DEBFCDBF11E0A0E0B1E0EAEDC6
:1000C000F6E002C005900D92A230B107D9F721E009
:1000D000A2E0B1E001C01D92A635B207E1F70E948F
:1000E00061020C946B030C9400008E9810929500A2
:1000F0001092940088E690E0909397008093960089
:10010000E1E9F0E080818861808380818260808382
:100110008091010180939A00C59AE1E7F0E0808127
:10012000806280837894089585B7806885BF85B79D
:10013000806885BF8798869A8E9A86E191E00895B7
:100140001F920F920FB60F921124CF92DF92EF926F
:10015000FF922F933F934F935F936F937F938F9370
:100160009F93AF93BF93EF93FF93909115012091CD
:10017000150181E0943009F080E0811106C081E032
:10018000213009F080E0882361F0C0901301D09005
:100190001401E12CF12C80910C01082E000C990B1C
:1001A0000CC0C0900F01D0901001E0901101F090B0
:1001B000120180910D0190910E01009701F51092AE
:1001C000710080911501843009F066C08E9A80E834
:1001D00096E0909397008093960090939900809377
:1001E000980010920A0188E080930C0110920B0194
:1001F000C19AE1E7F0E08081826080834DC09C017C
:100200002150310941E050E0022E02C0440F551F39
:100210000A94E2F7052E000C660B770B4C215D214A
:100220006E217F21452B462B472B11F08E9A1DC046
:100230008E98C29A029741E050E0BA0102C0660F60
:10024000771F8A95E2F7CB01092E000CAA0BBB0B96
:10025000C822D922EA22FB22CD28CE28CF2829F095
:10026000E1E7F0E080818460808390911501409106
:10027000150181E0943009F080E0811106C081E031
:10028000413009F080E0882319F020930C0104C06C
:1002900030930E0120930D01FF91EF91BF91AF912B
:1002A0009F918F917F916F915F914F913F912F918E
:1002B000FF90EF90DF90CF900F900FBE0F901F90A8
:1002C00018951F920F920FB60F9211248F939F9340
:1002D000EF93FF93E1E7F0E0108288E690E09093DF
:1002E00097008093960080939C00C39A80818860D9
:1002F0008083FF91EF919F918F910F900FBE0F9090
:100300001F9018951F920F920FB60F9211240F9005
:100310000FBE0F901F9018951F920F920FB60F925D
:1003200011242F933F938F939F93EF93FF9380918B
:100330000C01815090910A018F3F49F5992321F0DA
:1003400020910B0120321CF0109271002BC08E986E
:1003500020EA31E030939700209396003093990083
:1003600020939800C19AE1E7F0E080818260808369
:1003700080910B01E82F082E000CFF0BEA5EFE4F68
:1003800090838F5F80930B0190E088E00BC07F9B90
:1003900009C021E030E0082E02C0220F331F0A946A
:1003A000E2F7922B90930A0180930C01FF91EF9159
:1003B0009F918F913F912F910F900FBE0F901F90A3
:1003C000189598E08823B4F420911301309114011A
:1003D000220F331F220F331F309314012093130178
:1003E0002091130130911401226030931401209365
:1003F000130115C02091130130911401220F331FF6
:10040000220F331F30931401209313012091130105
:100410003091140121603093140120931301880F4F
:10042000915081F60895806C0E94E10181E08093F3
:10043000150180E180930C010E9475000895AC01C4
:1004400020E160E070E0CB01552374F4DC01CB01C6
:10045000880F991FAA1FBB1F880F991FAA1FBB1FB8
:10046000BC01CD0162600DC0DC01CB01880F991F7A
:10047000AA1FBB1F880F991FAA1FBB1FBC01CD015C
:100480006160440F551F2150F9F608958F77282F8A
:100490002064862F90E0922B0E941F02109215017B
:1004A00020E030E830930E0120930D0160930F019E
:1004B0007093100180931101909312010E947500B6
:1004C0000895E1E6F0E080E880831082CFEFC4B9C0
:1004D00015B8529A5098589A10929500109294001C
:1004E00088E690E09093970080939600E1E9F0E031
:1004F000808188618083808182608083E9E6F0E08A
:1005000080818C7F81608083E89A78940E94940037
:1005100085B7806885BF85B7806885BF869AC0BB70
:1005200081E080930001C4E0D1E0809104019091CA
:10053000050189399A4939F48BB18C278BB910920E
:100540000501109204018091040190910501853507
:10055000954039F48BB18C278BB91092050110921C
:10056000040180910401909105018A3B910539F4C1
:100570008BB18C278BB910920501109204018091E8
:100580000901813041F410920901D09300011092C9
:100590000501109204016FEF8FEF0E9446028FEF6A
:1005A00099E628E1815090402040E1F700C000002A
:1005B00081E40E9413028FEF99E628E18150904078
:1005C0002040E1F700C00000B0CF1F920F920FB69D
:1005D0000F9211248F939F9380910001813089F4B1
:1005E0008091080181110DC048996EC09BB184E0D3
:1005F00089278BB9109200011092950010929400F7
:1006000063C08091000181115FC080910801811158
:100610005BC080919400909195008A38910508F410
:1006200053C01092950010929400489B13C0809183
:10063000060190910701880F991F909307018093FD
:100640000601809106019091070190930701809324
:10065000060113C08091060190910701880F991F30
:100660009093070180930601809106019091070104
:10067000816090930701809306018091020190911F
:10068000030101969093030180930201809102017E
:10069000909103010897C0F010920301109202019B
:1006A00081E0809309018091060190910701909368
:1006B00005018093040110920701109206018091B8
:1006C00004019091050185B99F918F910F900FBE04
:0A06D0000F901F901895F894FFCFCB
:0206DA00015EBF
:00000001FF
