S01100004D61505F536C6176652E73726563BB
S11300000EC028C021C126C025C024C023C022C0E0
S113001021C020C04CC01EC01DC01CC01BC0112468
S11300201FBECFE5D2E0DEBFCDBF10E0A0E6B0E05A
S1130030E2E3F3E002C005900D92A236B107D9F7CE
S113004020E0A2E6B0E001C01D92AE36B207E1F7AF
S11300509CD06DC1D5CF8BB780628BBFA99A7894A1
S1130060089580B7846080BF1FBC88EC8EBD88B7BC
S1130070806488BF089580B78B7F80BF10BE0895C9
S1130080B89AC09A0895BB9A089512BE89B7806140
S113009089BF82E08ABD83B7826083BF12BE84E3D6
S11300A089BD88B7806188BF12BE789408951F9275
S11300B00F920FB60F9211242F933F934F935F9398
S11300C08F932091640030916500809163008111C9
S11300D00EC089B78F7E89BF83B78D7F83BF809120
S11300E06200843011F4C09A14C0C09812C08150C8
S11300F041E050E0082E02C0440F551F0A94E2F775
S113010024233523232B11F0C09A01C0C098809377
S113011063008F915F914F913F912F910F900FBE8C
S11301200F901F90189598E08823B4F420916400F0
S113013030916500220F331F220F331F3093650067
S11301402093640020916400309165002260309314
S113015065002093640015C020916400309165000F
S1130160220F331F220F331F309365002093640046
S113017020916400309165002160309365002093E4
S11301806400880F915081F6089580E886BD16BCFE
S113019077DF79DFB998C1985EDF63DF86EB90E0A3
S11301A0909365008093640080E18093630084E011
S11301B0809362007894B89AC09818E0D0E1C1E0C6
S11301C080916D008130E1F756DF8BB78F7D8BBF57
S11301D08091680090916900853A910589F488B30B
S11301E0812788BB85EA9FDFD093630080916400F8
S11301F0909165004ADF109269001092680017C060
S113020080916800909169008B3B910581F488B3DB
S1130210812788BB8BEB87DFD093630080916400D8
S11302209091650032DF109269001092680010927C
S11302306D00C0936000109269001092680011DF95
S11302408BB780628BBFBCCF1F920F920FB60F92F9
S113025011248F939F9380916000813051F4809199
S11302606C00811106C0B1995BC0109260001FBC84
S113027057C080916000811153C080916C0081113E
S11302804FC08FB58F3408F44BC01FBCB19B13C053
S113029080916A0090916B00880F991F90936B0076
S11302A080936A0080916A0090916B0090936B0038
S11302B080936A0013C080916A0090916B00880F4C
S11302C0991F90936B0080936A0080916A009091CB
S11302D06B00816090936B0080936A00809166004C
S11302E090916700019690936700809366008091D7
S11302F0660090916700089798F01092670010923A
S1130300660081E080936D0080916A0090916B009B
S1130310909369008093680010926B0010926A00B9
S11303209F918F910F900FBE0F901F901895F89486
S1050330FFCFF9
S10503320100C4
S9030000FC
